{
  "_format": "hh-sol-artifact-1",
  "contractName": "Inbox",
  "sourceName": "contracts/Inbox.sol",
  "abi": [
    {
      "constant": false,
      "inputs": [
        {
          "name": "newMessage",
          "type": "string"
        }
      ],
      "name": "setMessage",
      "outputs": [],
      "payable": false,
      "stateMutability": "nonpayable",
      "type": "function"
    },
    {
      "constant": true,
      "inputs": [],
      "name": "message",
      "outputs": [
        {
          "name": "",
          "type": "string"
        }
      ],
      "payable": false,
      "stateMutability": "view",
      "type": "function"
    },
    {
      "inputs": [
        {
          "name": "initialMessage",
          "type": "string"
        }
      ],
      "payable": false,
      "stateMutability": "nonpayable",
      "type": "constructor"
    }
  ],
  "bytecode": "0x6060604052341561000f57600080fd5b6040516103b83803806103b8833981016040528080518201919050508060009080519060200190610041929190610048565b50506100ed565b828054600181600116156101000203166002900490600052602060002090601f016020900481019282601f1061008957805160ff19168380011785556100b7565b828001600101855582156100b7579182015b828111156100b657825182559160200191906001019061009b565b5b5090506100c491906100c8565b5090565b6100ea91905b808211156100e65760008160009055506001016100ce565b5090565b90565b6102bc806100fc6000396000f30060606040526000357c0100000000000000000000000000000000000000000000000000000000900463ffffffff168063368b877214610048578063e21f37ce146100a557600080fd5b341561005357600080fd5b6100a3600480803590602001908201803590602001908080601f01602080910402602001604051908101604052809392919081815260200183838082843782019150505050505091905050610133565b005b34156100b057600080fd5b6100b861014d565b6040518080602001828103825283818151815260200191508051906020019080838360005b838110156100f85780820151818401526020810190506100dd565b50505050905090810190601f1680156101255780820380516001836020036101000a031916815260200191505b509250505060405180910390f35b80600090805190602001906101499291906101eb565b5050565b60008054600181600116156101000203166002900480601f0160208091040260200160405190810160405280929190818152602001828054600181600116156101000203166002900480156101e35780601f106101b8576101008083540402835291602001916101e3565b820191906000526020600020905b8154815290600101906020018083116101c657829003601f168201915b505050505081565b828054600181600116156101000203166002900490600052602060002090601f016020900481019282601f1061022c57805160ff191683800117855561025a565b8280016001018555821561025a579182015b8281111561025957825182559160200191906001019061023e565b5b509050610267919061026b565b5090565b61028d91905b80821115610289576000816000905550600101610271565b5090565b905600a165627a7a7230582069ceb6e953b69f394fe5a9f71d9d3db3d11bb201c3ae377bafe2d9a438187a1d0029",
  "linkReferences": {},
  "deployedLinkReferences": {}
}